:100000000C9440000C9468000C9468000C946800F8
:100010000C9468000C9468000C9468000C946800C0
:100020000C9468000C94C5060C94EE060C9417070B
:100030000C94BB070C9440070C9469070C9492072E
:100040000C944A060C9473060C949C060C9468005D
:100050000C946D040C9420020C9468000C946800BD
:100060000C9468000C9468000C9468000C94680070
:100070000C9442040C946E020C9468009804480995
:1000800011241FBECFEFD0E1DEBFCDBF11E0A0E055
:10009000B1E0EAE3F3E102C005900D92AA36B107A0
:1000A000D9F712E0AAE6B1E001C01D92A839B10764
:1000B000E1F710E0C0E8D0E004C02297FE010E9402
:1000C0009709CC37D107C9F70E9467010C949B09A7
:1000D0000C9400000F931F93CF93DF93EB018A01E1
:1000E00042E0BC018AE00E94A20442E0BE018CE032
:1000F0000E94A20442E0B8018DE0DF91CF911F91F0
:100100000F910C94A2040F931F9380916F018111A2
:100110001FC069B1669561704AE050E086ED91E0DC
:100120000E94DB05499B45C00E94330160936B012F
:1001300070936C0180936D0190936E0181E08093C8
:100140006F0166E071E086ED91E00E945E0531C0CE
:1001500049992FC00E94330100916B0110916C01ED
:1001600020916D0130916E01601B710B820B930B1E
:100170006838734181059105A0F040E050E06FEFD1
:1001800070E080E090E00E946A0081E0809370015E
:1001900062E171E086ED91E00E945E0510926A01D5
:1001A00006C060E271E086ED91E00E945E0510926B
:1001B0006F0164E670E080E090E01F910F910C9475
:1001C0004501EF920F93E12C01E028E040E855E271
:1001D00060E070E086ED91E00E94400310926F01B4
:1001E0003A9A3C9A3D9A51984FEF50E06FEF70E089
:1001F00080E090E00F91EF900C946A008091720182
:1002000090917301A0917401B091750130917101C9
:10021000232F2D5F2D3720F40196A11DB11D05C0A0
:10022000232F2A570296A11DB11D2093710180939F
:10023000720190937301A0937401B0937501809142
:10024000760190917701A0917801B09179010196A2
:10025000A11DB11D8093760190937701A093780141
:10026000B093790108950F931F938FB7F89400917D
:1002700072011091730120917401309175018FBF4B
:10028000B801C9011F910F9108958F929F92AF926B
:10029000BF92CF92DF92EF92FF926B017C010E949E
:1002A00033014B015C010E943301681979098A0905
:1002B0009B096C157D058E059F05A8F3FF90EF90B7
:1002C000DF90CF90BF90AF909F908F9008950E9445
:1002D000F4050E94E1000E948300FDCFFC0120890B
:1002E0003189C9010895DC0150962D913C915197B7
:1002F000232B49F05496ED91FC915597E80FF91F87
:10030000268930E002C02FEF3FEFC9010895FC01BC
:10031000118A108A158A148A138A128A0895FC0198
:1003200024813581C9010895FC0124813581C901E9
:100330000895FC0180899189892BD1F03FB7F89409
:10034000808991890197918B808B84899589DF01C0
:10035000A80FB91F56962C910196803291051CF476
:10036000958B848B02C0158A148A3FBF30E002C08F
:100370002FEF3FEFC9010895EF92FF921F93CF93A4
:10038000DF931F92CDB7DEB77C01D701DA968D914E
:100390009C91DB974097C8F71FB7F894D696ED91DC
:1003A000FC91D7970190F081E02DC701C696698333
:1003B000099569814097C8F4F70182AD93AD019624
:1003C00093AF82AF84AD95ADE80FF91FE05CFF4FAE
:1003D00060830196D701DD969C938E93DC974097BE
:1003E00024F0DD961C921E92DC97F701EA5AFF4F2B
:1003F0000190F081E02D8081806280831FBF81E0C9
:1004000090E00F90DF91CF911F91FF90EF900895B2
:10041000665F7F4F680F791FCB010895665F7F4F3E
:10042000680F791FCB010895665F7F4F680F791FB2
:10043000CB010895665F7F4F680F791FCB01089548
:100440001F920F920FB60F9211242F938F939F93A9
:10045000AF93BF93EF93FF9380911002909111029D
:10046000892B21F1E0913002F0913102809110024C
:100470009091110201979093110280931002809144
:10048000140290911502DC01A45FBD4F1A962C91C5
:100490000196803191052CF49093150280931402FB
:1004A00004C0109215021092140220838091100251
:1004B00090911102892B31F4E0912C02F0912D02E0
:1004C00088E98083FF91EF91BF91AF919F918F91C8
:1004D0002F910F900FBE0F901F9018951F920F92A3
:1004E0000FB60F9211242F938F939F93AF93BF93C7
:1004F000EF93FF938091B4019091B501892B21F185
:10050000E091D401F091D5018091B4019091B501B1
:1005100001979093B5018093B4018091B8019091B7
:10052000B901DC01A055BE4F1A962C91019680317D
:1005300091052CF49093B9018093B80104C01092F6
:10054000B9011092B80120838091B4019091B50156
:10055000892B31F4E091D001F091D10188E98083B9
:10056000FF91EF91BF91AF919F918F912F910F903C
:100570000FBE0F901F901895FC01262F1382128238
:1005800048EE53E060E070E04483558366837783F0
:1005900085E391E09183808385E491E0958784876A
:1005A00080E290E097878687118A108A158A148ADC
:1005B000138A128A8FE491E097AB86AB80E190E0DA
:1005C00091AF80AF13AE12AE17AE16AE15AE14AE2D
:1005D000222321F0213009F052C028C0DF01A05BA6
:1005E000BF4F85EC90E08D939C93DF01AE5ABF4FD7
:1005F00084EC90E08D939C93DF01AC5ABF4F80EC6C
:1006000090E08D939C93DF01AA5ABF4F81EC90E05C
:100610008D939C93DF01A85ABF4F82EC90E08D939D
:100620009C93E65AFF4F86EC90E027C0DF01A05B69
:10063000BF4F8DEC90E08D939C93DF01AE5ABF4F7E
:100640008CEC90E08D939C93DF01AC5ABF4F88EC0B
:1006500090E08D939C93DF01AA5ABF4F89EC90E004
:100660008D939C93DF01A85ABF4F8AEC90E08D9345
:100670009C93E65AFF4F8EEC90E09183808308951F
:100680003F924F925F926F927F928F929F92AF9222
:10069000BF92CF92DF92EF92FF920F931F93CF936F
:1006A000DF93EC014A015B01122F3E2C60E072E106
:1006B0008AE790E0A50194010E94570969017A0137
:1006C00084E0C80ED11CE11CF11C83E0F694E79491
:1006D000D794C7948A95D1F760E074E284EF90E0F4
:1006E000A50194010E94570929013A0194E0490E9D
:1006F000511C611C711C93E0769467945794479445
:100700009A95D1F7A30192014427552760E874E830
:100710008EE190E00E9479095901A818B908B7FE46
:1007200003C0B194A194B108A701960144275527AD
:1007300060E472E48FE090E00E9479092819390999
:1007400037FF03C0319521953109FE01EC5AFF4F67
:100750000190F081E02DA216B3063CF482E0808384
:10076000620181E0C81AD10804C0108291E0C91A60
:10077000D1081630C1F018F4153099F405C01730BF
:1007800029F0193071F404C080E00EC084E00CC080
:10079000FE01EA5AFF4F0190F081E02D80818460D4
:1007A000808386E001C082E0023009F4886091E035
:1007B000391621F092E0391204C002C0806301C0F2
:1007C0008062FE01E85AFF4F0190F081E02D8083A6
:1007D000FE01E05BFF4F0190F081E02DD082FE0131
:1007E000EE5AFF4F0190F081E02DC082CA5ADF4FD0
:1007F000E881F98188E98083DF91CF911F910F9182
:10080000FF90EF90DF90CF90BF90AF909F908F9030
:100810007F906F905F904F903F9008950F931F933C
:10082000CF93DF931F92CDB7DEB78C01DC01ED9142
:10083000FC910190F081E02D698309956981809791
:10084000D0F4F80184819581019695838483868113
:100850009781E80FF91F628701968032910534F481
:10086000D80117969C938E93169703C0F8011782B0
:10087000168281E001C080E00F90DF91CF911F913F
:100880000F9108951F920F920FB60F9211242F937C
:100890003F934F935F936F937F938F939F93AF9308
:1008A000BF93EF93FF93E091D401F091D501608164
:1008B00086E891E00E940E04FF91EF91BF91AF9105
:1008C0009F918F917F916F915F914F913F912F9168
:1008D0000F900FBE0F901F9018951F920F920FB69A
:1008E0000F9211242F933F934F935F936F937F93B6
:1008F0008F939F93AF93BF93EF93FF93E091300259
:10090000F0913102608182EE91E00E940E04FF912D
:10091000EF91BF91AF919F918F917F916F915F9177
:100920004F913F912F910F900FBE0F901F901895F0
:1009300060E086ED91E00E94BC0261E08AE791E010
:100940000C94BC021F93CF93DF93182FEB012097D9
:1009500021F460E00E941C0640E0143079F115306B
:1009600029F11630E9F1173099F1133169F014319A
:1009700009F044C011C060E001C061E0812FDF9147
:10098000CF911F910C941C0660E086E792E00E94D4
:10099000F708AE0160E007C061E086E792E00E94E0
:1009A000F708AE0161E086E792E023C060E084E5ED
:1009B00092E00E94F708AE0160E007C061E084E5C4
:1009C00092E00E94F708AE0161E084E592E011C078
:1009D00060E082E392E00E94F708AE0160E007C0A9
:1009E00061E082E392E00E94F708AE0161E082E3F9
:1009F00092E0DF91CF911F910C942409C038D1056A
:100A000008F4B9CFBACFCF92DF92EF92FF920F9353
:100A10001F93CF93DF936C01EB017A01E60EF71E73
:100A200000E010E00BC06991D601ED91FC910190BE
:100A3000F081E02DC6010995080F191FCE15DF05BD
:100A400091F7C801DF91CF911F910F91FF90EF9027
:100A5000DF90CF9008956115710581F0DB010D9055
:100A60000020E9F7AD0141505109461B570BDC014D
:100A7000ED91FC910280F381E02D099480E090E0FB
:100A80000895DC01ED91FC910190F081E02D099435
:100A90000F931F93CF93DF93EC016DE00E9441050C
:100AA0008C016AE0CE010E9441059C01200F311F9C
:100AB000C901DF91CF911F910F9108950F931F935B
:100AC000CF93DF93EC010E942B058C01CE010E9495
:100AD00048059801280F391FC901DF91CF911F9157
:100AE0000F9108954F925F926F927F929F92AF9273
:100AF000BF92CF92DF92EF92FF920F931F93CF930B
:100B0000DF93CDB7DEB7A1970FB6F894DEBF0FBE67
:100B1000CDBF5C016A017B01922E19A281E0821790
:100B200010F08AE0982E8E010F5D1F4F492C512C3A
:100B3000612C712CC701B601A30192010E945709D3
:100B40008C2D929E80191124015011098A3014F4C1
:100B5000805D01C0895CF801808369017A01C1145C
:100B6000D104E104F10431F7B801C5010E942B055D
:100B7000A1960FB6F894DEBF0FBECDBFDF91CF9127
:100B80001F910F91FF90EF90DF90CF90BF90AF90AB
:100B90009F907F906F905F904F9008952115310541
:100BA00041F4DC01ED91FC910190F081E02D642F86
:100BB00009940C9472050F931F93CF93DF93EC016C
:100BC0009A01462F50E060E070E00E94CE058C0153
:100BD000CE010E9448059801280F391FC901DF91F5
:100BE000CF911F910F91089563E086E792E00E94F4
:100BF000E10821E04EEF50E060E086E792E00E94DD
:100C0000B70864E086E792E00E94E40761E084E5CB
:100C100092E00E94E10864E084E592E00E94E4072B
:100C200061E082E392E00E94E10864E082E392E006
:100C30000E94E40778940895982F977021E030E09F
:100C4000092E01C0220F0A94EAF7869586958695AB
:100C500081F0813089F0823091F08330D1F412C07C
:100C600080812095822302C08081822B80839FBF58
:100C70000895EBE2F0E008C0E8E2F0E005C0E5E24C
:100C8000F0E002C0E2E2F0E09FB7F894662341F39F
:100C9000EBCF08951F920F920FB60F9211242F934E
:100CA0003F934F935F936F937F938F939F93AF93F4
:100CB000BF93EF93FF93E0919002F09191023097F0
:100CC00009F00995FF91EF91BF91AF919F918F919D
:100CD0007F916F915F914F913F912F910F900FBE38
:100CE0000F901F9018951F920F920FB60F9211241C
:100CF0002F933F934F935F936F937F938F939F9324
:100D0000AF93BF93EF93FF93E0919202F091930220
:100D1000309709F00995FF91EF91BF91AF919F91A5
:100D20008F917F916F915F914F913F912F910F9094
:100D30000FBE0F901F9018951F920F920FB60F9233
:100D400011242F933F934F935F936F937F938F93D0
:100D50009F93AF93BF93EF93FF93E0918E02F09137
:100D60008F02309709F00995FF91EF91BF91AF91F4
:100D70009F918F917F916F915F914F913F912F91B3
:100D80000F900FBE0F901F9018951F920F920FB6E5
:100D90000F9211242F933F934F935F936F937F9301
:100DA0008F939F93AF93BF93EF93FF93E0914C0288
:100DB000F0914D02309709F00995FF91EF91BF91A5
:100DC000AF919F918F917F916F915F914F913F91E3
:100DD0002F910F900FBE0F901F9018951F920F929A
:100DE0000FB60F9211242F933F934F935F936F93FE
:100DF0007F938F939F93AF93BF93EF93FF93E09174
:100E00004E02F0914F02309709F00995FF91EF9152
:100E1000BF91AF919F918F917F916F915F914F9112
:100E20003F912F910F900FBE0F901F9018951F921A
:100E30000F920FB60F9211242F933F934F935F930E
:100E40006F937F938F939F93AF93BF93EF93FF9392
:100E5000E0914A02F0914B02309709F00995FF9119
:100E6000EF91BF91AF919F918F917F916F915F9122
:100E70004F913F912F910F900FBE0F901F9018959B
:100E80001F920F920FB60F9211242F933F934F93FF
:100E90005F936F937F938F939F93AF93BF93EF93E2
:100EA000FF93E0916E02F0916F02309709F009957F
:100EB000FF91EF91BF91AF919F918F917F916F9132
:100EC0005F914F913F912F910F900FBE0F901F9008
:100ED00018951F920F920FB60F9211242F933F93E4
:100EE0004F935F936F937F938F939F93AF93BF9332
:100EF000EF93FF93E0917002F0917102309709F047
:100F00000995FF91EF91BF91AF919F918F917F9143
:100F10006F915F914F913F912F910F900FBE0F9066
:100F20001F9018951F920F920FB60F9211242F93B6
:100F30003F934F935F936F937F938F939F93AF9361
:100F4000BF93EF93FF93E0916C02F0916D023097A5
:100F500009F00995FF91EF91BF91AF919F918F910A
:100F60007F916F915F914F913F912F910F900FBEA5
:100F70000F901F9018951F920F920FB60F92112489
:100F80002F933F934F935F936F937F938F939F9391
:100F9000AF93BF93EF93FF93E0917402F0917502CA
:100FA000309709F00995FF91EF91BF91AF919F9113
:100FB0008F917F916F915F914F913F912F910F9002
:100FC0000FBE0F901F901895DC012C9161502230BC
:100FD00039F4673068F4E62FF0E0EB5AFE4F06C0B4
:100FE000693030F4E62FF0E0E45AFE4F208101C072
:100FF00020E0DC011A96ED91FC911B978081887F9F
:10100000822B80830895CF93DF93EC016883613056
:1010100011F120F0623009F06CC048C01B821A82C6
:1010200086E490E09D838C838EE690E09F838E83A0
:1010300084E490E09987888785E490E09B878A879D
:101040001D861C8687E490E09F878E87198A188A00
:1010500088E490E022C08FE690E09F838E8385E84D
:1010600090E09B838A8384E890E09D838C8380E872
:1010700090E09987888781E890E09B878A8789E854
:1010800090E09D878C8788E890E09F878E878BE82B
:1010900090E0998B888B8AE890E09B8B8A8B1D8AE5
:1010A0001C8A1F8A1E8A82E0898323C01B821A82BF
:1010B00082EB90E09D838C8380E790E09F838E831A
:1010C00080EB90E09987888781EB90E09B878A8707
:1010D0001D861C8683EB90E09F878E87198A188A6D
:1010E00084EB90E09B8B8A8B1D8A1C8A1F8A1E8A48
:1010F000698360E0CE010E94E407EA81FB813097BA
:1011000009F01082EC81FD811082198E188E1B8EE1
:101110001A8E1D8E1C8E1F8E1E8E19A218A2DF9194
:10112000CF91089551E0411101C050E06530F0F4D5
:10113000E62FF0E0EB59FE4F408147FD17C0DC0180
:101140001696ED91FC911797808121E030E0042EF6
:1011500001C0220F0A94EAF720952823852F042E38
:1011600001C0880F0A94EAF7282B20830895623083
:1011700099F028F4662341F06130C9F409C0633066
:1011800079F06430A1F410C0FC01518F408F0FC082
:10119000FC01538F428F0BC0FC01558F448F07C059
:1011A000FC01578F468F03C0FC0151A340A3452B80
:1011B00011F440E003C0222319F041E00C9492089E
:1011C0000895DC011896ED91FC9119973081262F36
:1011D00023703C7F232B20831A96ED91FC911B9763
:1011E00080816C70660F877E682B60830895FC0198
:1011F0008181681740F59081992311F0923011F4A4
:10120000813049F0662329F0613029F0623031F4F1
:1012100004C026E003C024E001C022E00084F18580
:10122000E02D308183E090E0022E01C0880F0A9407
:10123000EAF7809583234370022E01C0440F0A947D
:10124000EAF7842B80830895FC0181816817F8F404
:10125000611109C0A485B585109709F05C930684D7
:10126000F785E02D13C0613049F4A089B18910974A
:1012700009F05C930288F389E02D08C0623039F4EC
:10128000A489B5895C930688F789E02D4083089589
:1012900060E086E792E00E94030861E084E592E066
:1012A0000E94030862E082E392E00C940308A1E24A
:1012B0001A2EAA1BBB1BFD010DC0AA1FBB1FEE1FD0
:1012C000FF1FA217B307E407F50720F0A21BB30B1B
:1012D000E40BF50B661F771F881F991F1A9469F797
:1012E00060957095809590959B01AC01BD01CF01F3
:1012F0000895052E97FB16F4009407D057FD0DD0E6
:101300000E94570907FC09D07EF49095809570954E
:1013100061957F4F8F4F9F4F089550954095309521
:1013200021953F4F4F4F5F4F0895EE0FFF1F0590E0
:0A133000F491E02D0994F894FFCF2A
:10133A00000098022000436F6E74616374206F6E20
:10134A002100446F6F72206F70656E656421210001
:10135A004E4F5420454E544F5547482054494D4509
:10136A000000000000BC0103056E017301990187AA
:10137A000100000000940114021A02000000008F0C
:10138A000108020E02010203040506070102000316
:0A139A000004050607000102030528
:00000001FF
