:100000000C9440000C9468000C9468000C946800F8
:100010000C9468000C9468000C9468000C946800C0
:100020000C9468000C94C3050C94EC050C94150614
:100030000C94B9060C943E060C9467060C9490063A
:100040000C9448050C9471050C949A050C94680066
:100050000C9447040C94FA010C9468000C9468000A
:100060000C9468000C9468000C9468000C94680070
:100070000C941C040C9448020C9468007204F5075C
:1000800011241FBECFEFD0E1DEBFCDBF11E0A0E055
:10009000B1E0E4E9F0E102C005900D92A236B107AB
:1000A000D9F712E0A2E6B1E001C01D92AD38B10768
:1000B000E1F710E0C0E8D0E004C02297FE010E9402
:1000C0004408CC37D107C9F70E9441010C94480875
:1000D0000C940000EF920F9361E0809108010E9460
:1000E000C10060E0809106010E94C100E12C01E0A6
:1000F00028E040E855E260E070E082EC91E00E9488
:100100001A030F91EF900895CF93DF93809106012A
:100110000E94EF00C82FD0E0D0936301C09362012A
:10012000C130D105B1F461E0809108010E94130152
:100130008091640190916501892B01F56AE071E07D
:1001400082EC91E00E94D704D0936501C0936401D2
:1001500015C060E0809108010E9413018091640144
:1001600090916501019751F46BE171E082EC91E0AF
:100170000E94D7041092650110926401DF91CF9123
:100180000895982F977021E030E0092E01C0220FCA
:100190000A94EAF786958695869581F0813089F0F4
:1001A000823091F08330D1F412C080812095822377
:1001B00002C08081822B80839FBF0895EAE2F0E035
:1001C00008C0E7E2F0E005C0E4E2F0E002C0E1E2EE
:1001D000F0E09FB7F894662341F3EBCF0895982F92
:1001E000977021E030E001C0220F9A95EAF78695DA
:1001F0008695869539F0813041F0823049F0833020
:1002000051F00895E9E2F0E008C0E6E2F0E005C050
:10021000E3E2F0E002C0E0E2F0E09081922381E0CE
:1002200009F480E00895982F977021E030E0092EBE
:1002300001C0220F0A94EAF786958695869581F08B
:10024000813089F0823091F08330D1F412C0808106
:100250002095822302C08081822B80839FBF0895D6
:10026000EBE2F0E008C0E8E2F0E005C0E5E2F0E033
:1002700002C0E2E2F0E09FB7F894662341F3EBCFCF
:1002800008950E94EB040E946A000E948400FDCF42
:10029000FC0120893189C9010895DC0150962D9116
:1002A0003C915197232B49F05496ED91FC91559731
:1002B000E80FF91F268930E002C02FEF3FEFC90198
:1002C0000895FC01118A108A158A148A138A128AE9
:1002D0000895FC0124813581C9010895FC01248120
:1002E0003581C9010895FC0180899189892BD1F05C
:1002F0003FB7F894808991890197918B808B84898D
:100300009589DF01A80FB91F56962C91019680326E
:1003100091051CF4958B848B02C0158A148A3FBF0B
:1003200030E002C02FEF3FEFC9010895EF92FF9236
:100330001F93CF93DF931F92CDB7DEB77C01D70118
:10034000DA968D919C91DB974097C8F71FB7F89488
:10035000D696ED91FC91D7970190F081E02DC701E1
:10036000C6966983099569814097C8F4F70182AD03
:1003700093AD019693AF82AF84AD95ADE80FF91FB1
:10038000E05CFF4F60830196D701DD969C938E93CE
:10039000DC97409724F0DD961C921E92DC97F701C3
:1003A000EA5AFF4F0190F081E02D808180628083C6
:1003B0001FBF81E090E00F90DF91CF911F91FF90E0
:1003C000EF900895665F7F4F680F791FCB01089506
:1003D000665F7F4F680F791FCB010895665F7F4F7F
:1003E000680F791FCB010895665F7F4F680F791FF3
:1003F000CB0108951F920F920FB60F9211242F93E5
:100400008F939F93AF93BF93EF93FF938091FC01E2
:100410009091FD01892B21F1E0911C02F0911D02C8
:100420008091FC019091FD0101979093FD018093D3
:10043000FC018091000290910102DC01A850BE4FA6
:100440001A962C910196803191052CF4909301021B
:100450008093000204C010920102109200022083D7
:100460008091FC019091FD01892B31F4E0911802FB
:10047000F091190288E98083FF91EF91BF91AF91CC
:100480009F918F912F910F900FBE0F901F901895F5
:100490001F920F920FB60F9211242F938F939F9359
:1004A000AF93BF93EF93FF938091A0019091A1012F
:1004B000892B21F1E091C001F091C1018091A0014F
:1004C0009091A10101979093A1018093A001809147
:1004D000A4019091A501DC01A456BE4F1A962C915F
:1004E0000196803191052CF49093A5018093A4018D
:1004F00004C01092A5011092A40120838091A00154
:100500009091A101892B31F4E091BC01F091BD01E2
:1005100088E98083FF91EF91BF91AF919F918F9177
:100520002F910F900FBE0F901F901895FC01262F52
:100530001382128248EE53E060E070E044835583FA
:10054000668377838DE291E0918380838DE391E0F0
:100550009587848780E290E097878687118A108A42
:10056000158A148A138A128A87E491E097AB86ABC6
:1005700080E190E091AF80AF13AE12AE17AE16AE31
:1005800015AE14AE222321F0213009F052C028C04C
:10059000DF01A05BBF4F85EC90E08D939C93DF0162
:1005A000AE5ABF4F84EC90E08D939C93DF01AC5A20
:1005B000BF4F80EC90E08D939C93DF01AA5ABF4F10
:1005C00081EC90E08D939C93DF01A85ABF4F82ECA1
:1005D00090E08D939C93E65AFF4F86EC90E027C005
:1005E000DF01A05BBF4F8DEC90E08D939C93DF010A
:1005F000AE5ABF4F8CEC90E08D939C93DF01AC5AC8
:10060000BF4F88EC90E08D939C93DF01AA5ABF4FB7
:1006100089EC90E08D939C93DF01A85ABF4F8AEC40
:1006200090E08D939C93E65AFF4F8EEC90E091837F
:10063000808308953F924F925F926F927F928F9244
:100640009F92AF92BF92CF92DF92EF92FF920F9361
:100650001F93CF93DF93EC014A015B01122F3E2CD5
:1006600060E072E18AE790E0A50194010E9404082D
:1006700069017A0184E0C80ED11CE11CF11C83E001
:10068000F694E794D794C7948A95D1F760E074E222
:1006900084EF90E0A50194010E94040829013A0129
:1006A00094E0490E511C611C711C93E07694679490
:1006B000579447949A95D1F7A3019201442755275F
:1006C00060E874E88EE190E00E9426085901A818BD
:1006D000B908B7FE03C0B194A194B108A70196016F
:1006E0004427552760E472E48FE090E00E942608DA
:1006F0002819390937FF03C0319521953109FE01C9
:10070000EC5AFF4F0190F081E02DA216B3063CF4A5
:1007100082E08083620181E0C81AD10804C010829F
:1007200091E0C91AD1081630C1F018F4153099F4C7
:1007300005C0173029F0193071F404C080E00EC0F4
:1007400084E00CC0FE01EA5AFF4F0190F081E02DD9
:1007500080818460808386E001C082E0023009F4F9
:10076000886091E0391621F092E0391204C002C08D
:10077000806301C08062FE01E85AFF4F0190F08162
:10078000E02D8083FE01E05BFF4F0190F081E02DC2
:10079000D082FE01EE5AFF4F0190F081E02DC08221
:1007A000CA5ADF4FE881F98188E98083DF91CF91D0
:1007B0001F910F91FF90EF90DF90CF90BF90AF907F
:1007C0009F908F907F906F905F904F903F90089593
:1007D0000F931F93CF93DF931F92CDB7DEB78C019A
:1007E000DC01ED91FC910190F081E02D6983099588
:1007F00069818097D0F4F801848195810196958371
:10080000848386819781E80FF91F62870196803281
:10081000910534F4D80117969C938E93169703C0D4
:10082000F8011782168281E001C080E00F90DF910D
:10083000CF911F910F9108951F920F920FB60F92B3
:1008400011242F933F934F935F936F937F938F93D5
:100850009F93AF93BF93EF93FF93E091C001F0910B
:10086000C101608182E791E00E94E803FF91EF916E
:10087000BF91AF919F918F917F916F915F914F91B8
:100880003F912F910F900FBE0F901F9018951F92C0
:100890000F920FB60F9211242F933F934F935F93B4
:1008A0006F937F938F939F93AF93BF93EF93FF9338
:1008B000E0911C02F0911D0260818EEC91E00E949B
:1008C000E803FF91EF91BF91AF919F918F917F913D
:1008D0006F915F914F913F912F910F900FBE0F90AD
:1008E0001F90189560E082EC91E00E94960261E012
:1008F00086E691E00C949602CF92DF92EF92FF92FF
:100900000F931F93CF93DF936C01EB017A01E60EF7
:10091000F71E00E010E00BC06991D601ED91FC914B
:100920000190F081E02DC6010995080F191FCE1521
:10093000DF0591F7C801DF91CF911F910F91FF90D3
:10094000EF90DF90CF9008956115710581F0DB0184
:100950000D900020E9F7AD0141505109461B570B9E
:10096000DC01ED91FC910280F381E02D099480E09F
:1009700090E00895DC01ED91FC910190F081E02D73
:1009800009940F931F93CF93DF93EC016DE00E94C6
:10099000BA048C016AE0CE010E94BA049C01200FC7
:1009A000311FC901DF91CF911F910F9108950F93CE
:1009B0001F93CF93DF93EC010E94A4048C01CE011E
:1009C0000E94C1049801280F391FC901DF91CF91FE
:1009D0001F910F91089563E08BE692E00E94DF077C
:1009E00021E043E155E060E08BE692E00E94B5072C
:1009F00064E08BE692E00E94E20661E089E492E026
:100A00000E94DF0764E089E492E00E94E20661E070
:100A100087E292E00E94DF0764E087E292E00E94B2
:100A2000E2067894089580911F0290912002A0918F
:100A30002102B091220230911E02232F2D5F2D370B
:100A400020F40196A11DB11D05C0232F2A5702963F
:100A5000A11DB11D20931E0280931F0290932002BE
:100A6000A0932102B093220280912302909124024C
:100A7000A0912502B09126020196A11DB11D80937F
:100A8000230290932402A0932502B0932602089596
:100A90001F920F920FB60F9211242F933F934F93F3
:100AA0005F936F937F938F939F93AF93BF93EF93D6
:100AB000FF93E0918502F0918602309709F0099545
:100AC000FF91EF91BF91AF919F918F917F916F9126
:100AD0005F914F913F912F910F900FBE0F901F90FC
:100AE00018951F920F920FB60F9211242F933F93D8
:100AF0004F935F936F937F938F939F93AF93BF9326
:100B0000EF93FF93E0918702F0918802309709F00C
:100B10000995FF91EF91BF91AF919F918F917F9137
:100B20006F915F914F913F912F910F900FBE0F905A
:100B30001F9018951F920F920FB60F9211242F93AA
:100B40003F934F935F936F937F938F939F93AF9355
:100B5000BF93EF93FF93E0918302F091840230976B
:100B600009F00995FF91EF91BF91AF919F918F91FE
:100B70007F916F915F914F913F912F910F900FBE99
:100B80000F901F9018951F920F920FB60F9211247D
:100B90002F933F934F935F936F937F938F939F9385
:100BA000AF93BF93EF93FF93E0914102F091420224
:100BB000309709F00995FF91EF91BF91AF919F9107
:100BC0008F917F916F915F914F913F912F910F90F6
:100BD0000FBE0F901F9018951F920F920FB60F9295
:100BE00011242F933F934F935F936F937F938F9332
:100BF0009F93AF93BF93EF93FF93E0914302F091E4
:100C00004402309709F00995FF91EF91BF91AF91A0
:100C10009F918F917F916F915F914F913F912F9114
:100C20000F900FBE0F901F9018951F920F920FB646
:100C30000F9211242F933F934F935F936F937F9362
:100C40008F939F93AF93BF93EF93FF93E0913F02F6
:100C5000F0914002309709F00995FF91EF91BF9113
:100C6000AF919F918F917F916F915F914F913F9144
:100C70002F910F900FBE0F901F9018951F920F92FB
:100C80000FB60F9211242F933F934F935F936F935F
:100C90007F938F939F93AF93BF93EF93FF93E091D5
:100CA0006302F0916402309709F00995FF91EF918A
:100CB000BF91AF919F918F917F916F915F914F9174
:100CC0003F912F910F900FBE0F901F9018951F927C
:100CD0000F920FB60F9211242F933F934F935F9370
:100CE0006F937F938F939F93AF93BF93EF93FF93F4
:100CF000E0916502F0916602309709F00995FF9145
:100D0000EF91BF91AF919F918F917F916F915F9183
:100D10004F913F912F910F900FBE0F901F901895FC
:100D20001F920F920FB60F9211242F933F934F9360
:100D30005F936F937F938F939F93AF93BF93EF9343
:100D4000FF93E0916102F0916202309709F00995FA
:100D5000FF91EF91BF91AF919F918F917F916F9193
:100D60005F914F913F912F910F900FBE0F901F9069
:100D700018951F920F920FB60F9211242F933F9345
:100D80004F935F936F937F938F939F93AF93BF9393
:100D9000EF93FF93E0916902F0916A02309709F0B6
:100DA0000995FF91EF91BF91AF919F918F917F91A5
:100DB0006F915F914F913F912F910F900FBE0F90C8
:100DC0001F901895DC012C916150223039F4673066
:100DD00068F4E62FF0E0E35BFE4F06C0693030F4C4
:100DE000E62FF0E0EC5AFE4F208101C020E0DC014C
:100DF0001A96ED91FC911B978081887F822B8083CE
:100E00000895CF93DF93EC016883613011F120F0F6
:100E1000623009F06CC048C01B821A8286E490E000
:100E20009D838C838EE690E09F838E8384E490E0A4
:100E30009987888785E490E09B878A871D861C8632
:100E400087E490E09F878E87198A188A88E490E06B
:100E500022C08FE690E09F838E8385E890E09B839D
:100E60008A8384E890E09D838C8380E890E0998772
:100E7000888781E890E09B878A8789E890E09D8752
:100E80008C8788E890E09F878E878BE890E0998B2D
:100E9000888B8AE890E09B8B8A8B1D8A1C8A1F8A2C
:100EA0001E8A82E0898323C01B821A8282EB90E033
:100EB0009D838C8380E790E09F838E8380EB90E01E
:100EC0009987888781EB90E09B878A871D861C869F
:100ED00083EB90E09F878E87198A188A84EB90E0D5
:100EE0009B8B8A8B1D8A1C8A1F8A1E8A698360E0FD
:100EF000CE010E94E206EA81FB81309709F0108260
:100F0000EC81FD811082198E188E1B8E1A8E1D8E1B
:100F10001C8E1F8E1E8E19A218A2DF91CF910895EC
:100F200051E0411101C050E06530F0F4E62FF0E0EF
:100F3000E35AFE4F408147FD17C0DC011696ED9144
:100F4000FC911797808121E030E0042E01C0220F30
:100F50000A94EAF720952823852F042E01C0880FD4
:100F60000A94EAF7282B20830895623099F028F438
:100F7000662341F06130C9F409C0633079F0643010
:100F8000A1F410C0FC01518F408F0FC0FC01538FA2
:100F9000428F0BC0FC01558F448F07C0FC01578F57
:100FA000468F03C0FC0151A340A3452B11F440E040
:100FB00003C0222319F041E00C9490070895DC014E
:100FC0001896ED91FC9119973081262F23703C7F64
:100FD000232B20831A96ED91FC911B9780816C70D6
:100FE000660F877E682B6083089560E08BE692E051
:100FF0000E94010761E089E492E00E94010762E03B
:1010000087E292E00C940107A1E21A2EAA1BBB1BF7
:10101000FD010DC0AA1FBB1FEE1FFF1FA217B307C4
:10102000E407F50720F0A21BB30BE40BF50B661FDA
:10103000771F881F991F1A9469F76095709580959E
:1010400090959B01AC01BD01CF010895052E97FB42
:1010500016F4009407D057FD0DD00E94040807FC39
:1010600009D07EF490958095709561957F4F8F4F54
:101070009F4F089550954095309521953F4F4F4F84
:101080005F4F0895EE0FFF1F0590F491E02D099436
:04109000F894FFCF02
:1010940000008D02200002000B004D6F74696F6E1A
:1010A40020646574656374656421004D6F74696FB1
:1010B4006E20656E64656421000000000096017C6A
:1010C4000448014D0173016101000000006E01EE4E
:1010D40001F401000000006901E201E801010203DA
:1010E40004050607010200030004050607000102C7
:0210F4000305F2
:00000001FF
