:100000000C9442000C946A000C946A000C946A00F0
:100010000C946A000C946A000C946A000C946A00B8
:100020000C946A000C94390A0C94620A0C948B0AA2
:100030000C942F0B0C94B40A0C94DD0A0C94060B50
:100040000C94BE090C94E7090C94100A0C946A00F5
:100050000C9435070C94E8040C946A000C946A0024
:100060000C946A000C946A000C946A000C946A0068
:100070000C940A070C9436050C946A0095016007ED
:100080006B0CB20111241FBECFEFD0E1DEBFCDBF9C
:1000900011E0A0E0B1E0E2EBFEE102C005900D92BC
:1000A000A43DB107D9F713E0A4EDB1E001C01D9262
:1000B000AE32B107E1F710E0C2E8D0E004C0229709
:1000C000FE010E94BA0CCC37D107C9F70E942F0459
:1000D0000C944C0F0C940000EF920F93E12C01E074
:1000E00028E040E855E260E070E088E692E00E9497
:1000F000080667E771E087ED91E00E948908109299
:10010000D6011092D5011092D4010F91EF9008956D
:100110001F93CF93DF93CDB7DEB72E970FB6F8942A
:10012000DEBF0FBECDBF8091D401811107C08EED1F
:1001300091E00E94D0018823F1F007C069E171E0ED
:1001400088E692E00E94E707FFCF682FCE0108966D
:100150000E94D108BE01685F7F4F87ED91E00E9449
:100160001609CE0108960E94FB0767ED71E088E64C
:1001700092E00E94D3078091D601882319F165E3AC
:1001800071E0CE0108960E946C08BE01685F7F4F47
:1001900087ED91E00E947509182FCE0108960E9404
:1001A000FB07112379F01092D60167E371E088E62E
:1001B00092E00E94E707429867E771E087ED91E0DF
:1001C0000E94890863E471E0CE0108960E946C08E1
:1001D000BE01685F7F4F87ED91E00E94750988231B
:1001E00061F011E02091DB013091DC01809100028F
:1001F000909101028217930708F410E0CE0108964F
:100200000E94FB07112361F067E771E087ED91E041
:100210000E94890865E471E088E692E00E94E707A1
:100220002091DB013091DC0180910002909101026C
:100230002817390709F042C06CEF71E087ED91E0B3
:100240000E946409882369F0429A81E08093D60174
:1002500065E571E088E692E00E94E7071092D5011B
:1002600036C08091D5018F5F8093D50167E771E03B
:1002700087ED91E00E9489084AE06091D501CE01A6
:1002800008960E94A30863E671E0CE0101960E94E1
:100290006C08BE01685F7F4FCE0101960E941D0968
:1002A000BC0188E692E00E94D307CE0101960E942D
:1002B000FB07CE0108960E94FB0709C0821793072F
:1002C00030F465E571E088E692E00E94E7078091EE
:1002D000D5018330D0F067E771E087ED91E00E94AF
:1002E00089081092D50168E771E088E692E00E94E3
:1002F000E70760E375E780E090E00E948D0366E821
:1003000071E088E692E00E94E70764E670E080E032
:1003100090E00E948D032E960FB6F894DEBF0FBEBC
:10032000CDBFDF91CF911F910895EF920F9366E9B2
:1003300071E08CEF91E00E946C0883E0E82E04E00D
:1003400026E031E049E051E06DE071E08EED91E0B2
:100350000E941A0367E771E087ED91E00F91EF903B
:100360000C946C0887ED91E00E94FB078CEF91E004
:100370000C94FB07DC0118968D919C9119978617B8
:10038000970769F019967C936E9318975C96ED9198
:10039000FC915D97309719F01A968C910994089505
:1003A0004F925F926F927F92AF92BF92CF92DF9205
:1003B000EF92FF920F931F93CF93DF93EC01A12C49
:1003C000A8C00A2D10E0EC81FD81E00FF11F60E074
:1003D00080810E940104B12C68018EC0EB2CF12CAD
:1003E0008F81E881F981EC0DFD1DB89EE00DF11DB6
:1003F00011249A85808198133CC00E947B034E840F
:100400005F846888798864197509860997094A8C18
:100410005B8C612C712C641575058605970550F071
:10042000EA81FB81EE0DFF1D80810E94DD038823A0
:1004300009F498C00E947B034E845F8468887988A1
:100440006419750986099709488C598C612C712C9F
:10045000641575058605970508F493C0EA81FB814C
:10046000EB0DF11D80810E94DD03813009F089C010
:100470007FC00E947B034E845F84688879886419FA
:10048000750986099709488C598C612C712C641563
:1004900075058605970578F1EA81FB81EE0DFF1D54
:1004A00080810E94DD03811126C0EC81FD81E00F77
:1004B000F11F61E080810E9401042F812E9DC00107
:1004C0002F9D900D1124E881F981EC0DFD1DE80FA1
:1004D000F91FF0808E859F85A889B9898A8B9B8BAF
:1004E000AC8BBD8B0E947B036E877F87888B998B3B
:1004F000F11015C005C0B3948E81B81608F46ECF04
:10050000EC81FD81E00FF11F61E080810E94010418
:10051000A3948F81A81608F454CF80E040C08B8547
:10052000F81239C00E947B030A891B892C893D89F6
:10053000601B710B820B930B0E891F8920E030E04A
:10054000061717072807390710F525C081E090E046
:100550009D878C87FA8661E070E0CE010E94BA0127
:100560008A851DC063E070E0CE010E94BA0162CFAF
:1005700062E070E0CE010E94BA018A858B871A86FC
:10058000BFCF88859985039709F0B5CFB9CF8C8502
:100590009D850196DDCF8A85F812D8CFBECFDF9139
:1005A000CF911F910F91FF90EF90DF90CF90BF9070
:1005B000AF907F906F905F904F900895FF920F9350
:1005C0001F93CF93DF93EC01F12C13C00F2D10E09C
:1005D000EA81FB81E00FF11F60E080810E94AF03A0
:1005E000EA81FB81E00FF11F61E080810E9401043C
:1005F000F3948E81F81650F3F12C13C00F2D10E0F8
:10060000EC81FD81E00FF11F61E080810E94AF036A
:10061000EC81FD81E00FF11F61E080810E94010407
:10062000F3948F81F81650F3DF91CF911F910F91C2
:10063000FF900895EF920F93FC015383428335831B
:1006400024830683E7827183608316861786108A67
:10065000118A128A138A148A158A8CE291E0978B88
:10066000868B82E390E0918F808F88EE93E0938F6A
:10067000828F158E148E128613861186108615862B
:100680001486CF010F91EF900C94DE02809104024A
:1006900090910502A0910602B091070230910302E9
:1006A000232F2D5F2D3720F40196A11DB11D05C00C
:1006B000232F2A570296A11DB11D20930302809378
:1006C000040290930502A0930602B0930702809162
:1006D000080290910902A0910A02B0910B020196C2
:1006E000A11DB11D8093080290930902A0930A02F4
:1006F000B0930B0208950F931F938FB7F894009156
:1007000004021091050220910602309107028FBF6A
:10071000B801C9011F910F9108958F929F92AF92D6
:10072000BF92CF92DF92EF92FF926B017C010E9409
:100730007B034B015C010E947B03681979098A09DC
:100740009B096C157D058E059F05A8F3FF90EF9022
:10075000DF90CF90BF90AF909F908F900895982F8B
:10076000977021E030E0092E01C0220F0A94EAF7C9
:1007700086958695869581F0813089F0823091F05A
:100780008330D1F412C080812095822302C0808101
:10079000822B80839FBF0895EAE2F0E008C0E7E281
:1007A000F0E005C0E4E2F0E002C0E1E2F0E09FB773
:1007B000F894662341F3EBCF0895982F977021E0CA
:1007C00030E001C0220F9A95EAF7869586958695C6
:1007D00039F0813041F0823049F0833051F0089592
:1007E000E9E2F0E008C0E6E2F0E005C0E3E2F0E0B4
:1007F00002C0E0E2F0E09081922381E009F480E021
:100800000895982F977021E030E0092E01C0220F43
:100810000A94EAF786958695869581F0813089F06D
:10082000823091F08330D1F412C0808120958223F0
:1008300002C08081822B80839FBF0895EBE2F0E0AD
:1008400008C0E8E2F0E005C0E5E2F0E002C0E2E264
:10085000F0E09FB7F894662341F3EBCF08950E9430
:1008600096090E946C000E948800FDCFFC0120893F
:100870003189C9010895DC0150962D913C91519721
:10088000232B49F05496ED91FC915597E80FF91FF1
:10089000268930E002C02FEF3FEFC9010895FC0127
:1008A000118A108A158A148A138A128A0895FC0103
:1008B00024813581C9010895FC0124813581C90154
:1008C0000895FC0180899189892BD1F03FB7F89474
:1008D000808991890197918B808B84899589DF012B
:1008E000A80FB91F56962C910196803291051CF4E1
:1008F000958B848B02C0158A148A3FBF30E002C0FA
:100900002FEF3FEFC9010895EF92FF921F93CF930E
:10091000DF931F92CDB7DEB77C01D701DA968D91B8
:100920009C91DB974097C8F71FB7F894D696ED9146
:10093000FC91D7970190F081E02DC701C69669839D
:10094000099569814097C8F4F70182AD93AD01968E
:1009500093AF82AF84AD95ADE80FF91FE05CFF4F18
:1009600060830196D701DD969C938E93DC97409728
:1009700024F0DD961C921E92DC97F701EA5AFF4F95
:100980000190F081E02D8081806280831FBF81E033
:1009900090E00F90DF91CF911F91FF90EF9008951D
:1009A000665F7F4F680F791FCB010895665F7F4FA9
:1009B000680F791FCB010895665F7F4F680F791F1D
:1009C000CB010895665F7F4F680F791FCB010895B3
:1009D0001F920F920FB60F9211242F938F939F9314
:1009E000AF93BF93EF93FF938091A2029091A302E4
:1009F000892B21F1E091C202F091C3028091A20201
:100A00009091A30201979093A3028093A2028091F8
:100A1000A6029091A702DC01A256BD4F1A962C9116
:100A20000196803191052CF49093A7028093A60241
:100A300004C01092A7021092A60220838091A20205
:100A40009091A302892B31F4E091BE02F091BF0294
:100A500088E98083FF91EF91BF91AF919F918F9132
:100A60002F910F900FBE0F901F9018951F920F920D
:100A70000FB60F9211242F938F939F93AF93BF9331
:100A8000EF93FF938091460290914702892B21F1C9
:100A9000E0916602F09167028091460290914702D0
:100AA0000197909347028093460280914A02909169
:100AB0004B02DC01AE5BBD4F1A962C910196803142
:100AC00091052CF490934B0280934A0204C010923B
:100AD0004B0210924A022083809146029091470275
:100AE000892B31F4E0916202F091630288E98083FE
:100AF000FF91EF91BF91AF919F918F912F910F90A7
:100B00000FBE0F901F901895FC01262F13821282A2
:100B100048EE53E060E070E044835583668377835A
:100B20008FE991E0918380838FEA91E095878487B4
:100B300080E290E097878687118A108A158A148A46
:100B4000138A128A89EB91E097AB86AB80E190E043
:100B500091AF80AF13AE12AE17AE16AE15AE14AE97
:100B6000222321F0213009F052C028C0DF01A05B10
:100B7000BF4F85EC90E08D939C93DF01AE5ABF4F41
:100B800084EC90E08D939C93DF01AC5ABF4F80ECD6
:100B900090E08D939C93DF01AA5ABF4F81EC90E0C7
:100BA0008D939C93DF01A85ABF4F82EC90E08D9308
:100BB0009C93E65AFF4F86EC90E027C0DF01A05BD4
:100BC000BF4F8DEC90E08D939C93DF01AE5ABF4FE9
:100BD0008CEC90E08D939C93DF01AC5ABF4F88EC76
:100BE00090E08D939C93DF01AA5ABF4F89EC90E06F
:100BF0008D939C93DF01A85ABF4F8AEC90E08D93B0
:100C00009C93E65AFF4F8EEC90E091838083089589
:100C10003F924F925F926F927F928F929F92AF928C
:100C2000BF92CF92DF92EF92FF920F931F93CF93D9
:100C3000DF93EC014A015B01122F3E2C60E072E170
:100C40008AE790E0A50194010E947A0C69017A017B
:100C500084E0C80ED11CE11CF11C83E0F694E794FB
:100C6000D794C7948A95D1F760E074E284EF90E05E
:100C7000A50194010E947A0C29013A0194E0490EE1
:100C8000511C611C711C93E07694679457944794AF
:100C90009A95D1F7A30192014427552760E874E89B
:100CA0008EE190E00E949C0C5901A818B908B7FE8B
:100CB00003C0B194A194B108A70196014427552718
:100CC00060E472E48FE090E00E949C0C28193909DE
:100CD00037FF03C0319521953109FE01EC5AFF4FD2
:100CE0000190F081E02DA216B3063CF482E08083EF
:100CF000620181E0C81AD10804C0108291E0C91ACB
:100D0000D1081630C1F018F4153099F405C0173029
:100D100029F0193071F404C080E00EC084E00CC0EA
:100D2000FE01EA5AFF4F0190F081E02D808184603E
:100D3000808386E001C082E0023009F4886091E09F
:100D4000391621F092E0391204C002C0806301C05C
:100D50008062FE01E85AFF4F0190F081E02D808310
:100D6000FE01E05BFF4F0190F081E02DD082FE019B
:100D7000EE5AFF4F0190F081E02DC082CA5ADF4F3A
:100D8000E881F98188E98083DF91CF911F910F91EC
:100D9000FF90EF90DF90CF90BF90AF909F908F909B
:100DA0007F906F905F904F903F9008950F931F93A7
:100DB000CF93DF931F92CDB7DEB78C01DC01ED91AD
:100DC000FC910190F081E02D6983099569818097FC
:100DD000D0F4F8018481958101969583848386817E
:100DE0009781E80FF91F628701968032910534F4EC
:100DF000D80117969C938E93169703C0F80117821B
:100E0000168281E001C080E00F90DF91CF911F91A9
:100E10000F9108951F920F920FB60F9211242F93E6
:100E20003F934F935F936F937F938F939F93AF9372
:100E3000BF93EF93FF93E0916602F09167026081A8
:100E400088E192E00E94D606FF91EF91BF91AF91A9
:100E50009F918F917F916F915F914F913F912F91D2
:100E60000F900FBE0F901F9018951F920F920FB604
:100E70000F9211242F933F934F935F936F937F9320
:100E80008F939F93AF93BF93EF93FF93E091C20231
:100E9000F091C302608184E792E00E94D606FF9140
:100EA000EF91BF91AF919F918F917F916F915F91E2
:100EB0004F913F912F910F900FBE0F901F9018955B
:100EC00060E088E692E00E94840561E08CE092E0B8
:100ED0000C948405CF92DF92EF92FF920F931F93B1
:100EE000CF93DF936C01EB017A01E60EF71E00E071
:100EF00010E00BC06991D601ED91FC910190F08159
:100F0000E02DC6010995080F191FCE15DF0591F7D1
:100F1000C801DF91CF911F910F91FF90EF90DF906B
:100F2000CF9008956115710581F0DB010D900020CF
:100F3000E9F7AD0141505109461B570BDC01ED911A
:100F4000FC910280F381E02D099480E090E0089507
:100F5000DC01ED91FC910190F081E02D0994DC0120
:100F6000ED91FC91DB0114964D915C9115976D917B
:100F70007C910280F381E02D09940F931F93CF930E
:100F8000DF93EC016DE00E94A8078C016AE0CE01BE
:100F90000E94A8079C01200F311FC901DF91CF914A
:100FA0001F910F9108950F931F93CF93DF93EC013F
:100FB0000E94AF078C01CE010E94BD079C01200F4B
:100FC000311FC901DF91CF911F910F9108950F93A8
:100FD0001F93CF93DF93EC010E9492078C01CE0107
:100FE0000E94BD079801280F391FC901DF91CF91D9
:100FF0001F910F910895FC01808191810C94590DEE
:10100000CF93DF93EC0188819981009711F00E94C2
:10101000590D198218821D821C821B821A82DF914F
:10102000CF9108950F931F93CF93DF93EC018B0122
:101030006F5F7F4F888199810E94F60D009731F094
:10104000998388831B830A8381E001C080E0DF915C
:10105000CF911F910F910895CF93DF93EC01888179
:101060009981892B31F08A819B818617970708F037
:101070000CC0CE010E941208882349F08C819D810A
:10108000892B19F4E881F981108281E001C080E0A8
:10109000DF91CF910895EF92FF920F931F93CF931B
:1010A000DF93EC017B018A01BA010E942C088111B7
:1010B00004C0CE010E94000807C01D830C83B70145
:1010C000888199810E94D40ECE01DF91CF911F912A
:1010D0000F91FF90EF900895DC0111961C921E92E3
:1010E00013961C921E92129715961C921E9214979C
:1010F00016961C926115710559F0DB010D900020C8
:10110000E9F7AD0141505109461B570B0C944B08B0
:101110000895CF93DF93D82FC92F6115710561F022
:10112000DB010D900020E9F7AD0141505109461B4C
:10113000570B0E944B0802C00E9400088D2F9C2F65
:10114000DF91CF9108950F931F93CF93DF93CDB786
:10115000DEB729970FB6F894DEBF0FBECDBF8C0166
:10116000862FF80111821082138212821582148256
:10117000168250E0BE016F5F7F4F90E00E94DB0E51
:10118000BE016F5F7F4FC8010E94890829960FB684
:10119000F894DEBF0FBECDBFDF91CF911F910F91AD
:1011A0000895CF93DF9300D0CDB7DEB7FC01118255
:1011B00010821382128215821482168269831A8227
:1011C000BE016F5F7F4F0E9489080F900F90DF91E3
:1011D000CF910895EF92FF920F931F93CF93DF93D8
:1011E000EC017B010C811D816115710511F480E01A
:1011F00016C04115510591F0040F151FB8010E944A
:101200002C088823A1F3288139818C819D81B70125
:10121000820F931F0E94D40E1D830C8381E0DF9107
:10122000CF911F910F91FF90EF900895FB014481A2
:101230005581608171810C94EA08CF93DF93D82F98
:10124000C92FFB0144815581608171810E94EA08A8
:10125000811104C08D2F9C2F0E9400088D2F9C2F80
:10126000DF91CF910895CF93DF93DC01ED91FC9155
:10127000EB01A881B981309711F01097C9F410974C
:1012800059F0EB012C813D81232B31F02C9130E082
:1012900031952195310914C0309781F0DC01149605
:1012A0008D919C911597892B49F0208130E008C0E1
:1012B000BD01CF01DF91CF910C94CB0E20E030E047
:1012C000C901DF91CF910895FC0144815581FB0153
:1012D000248135814217530729F40E94330921E004
:1012E000892B09F020E0822F0895FC0184819581EB
:1012F000DB0114964D915C91159784179507A0F02A
:10130000208131812115310579F06D917C91611534
:10131000710551F0841B950B820F931F0E94CB0E19
:101320009C0181E0232B09F080E0089563E088E0D0
:1013300093E00E94550C21E046E453E060E088E031
:1013400093E00E942B0C64E088E093E00E94580B2D
:1013500061E086EE92E00E94550C64E086EE92E039
:101360000E94580B61E084EC92E00E94550C64E00E
:1013700084EC92E00E94580B789408951F920F928B
:101380000FB60F9211242F933F934F935F936F9358
:101390007F938F939F93AF93BF93EF93FF93E091CE
:1013A0002203F0912303309709F00995FF91EF9103
:1013B000BF91AF919F918F917F916F915F914F916D
:1013C0003F912F910F900FBE0F901F9018951F9275
:1013D0000F920FB60F9211242F933F934F935F9369
:1013E0006F937F938F939F93AF93BF93EF93FF93ED
:1013F000E0912403F0912503309709F00995FF91BE
:10140000EF91BF91AF919F918F917F916F915F917C
:101410004F913F912F910F900FBE0F901F901895F5
:101420001F920F920FB60F9211242F933F934F9359
:101430005F936F937F938F939F93AF93BF93EF933C
:10144000FF93E0912003F0912103309709F0099573
:10145000FF91EF91BF91AF919F918F917F916F918C
:101460005F914F913F912F910F900FBE0F901F9062
:1014700018951F920F920FB60F9211242F933F933E
:101480004F935F936F937F938F939F93AF93BF938C
:10149000EF93FF93E091DE02F091DF02309709F0C5
:1014A0000995FF91EF91BF91AF919F918F917F919E
:1014B0006F915F914F913F912F910F900FBE0F90C1
:1014C0001F9018951F920F920FB60F9211242F9311
:1014D0003F934F935F936F937F938F939F93AF93BC
:1014E000BF93EF93FF93E091E002F091E102309718
:1014F00009F00995FF91EF91BF91AF919F918F9165
:101500007F916F915F914F913F912F910F900FBEFF
:101510000F901F9018951F920F920FB60F921124E3
:101520002F933F934F935F936F937F938F939F93EB
:10153000AF93BF93EF93FF93E091DC02F091DD0254
:10154000309709F00995FF91EF91BF91AF919F916D
:101550008F917F916F915F914F913F912F910F905C
:101560000FBE0F901F9018951F920F920FB60F92FB
:1015700011242F933F934F935F936F937F938F9398
:101580009F93AF93BF93EF93FF93E0910003F0918C
:101590000103309709F00995FF91EF91BF91AF9149
:1015A0009F918F917F916F915F914F913F912F917B
:1015B0000F900FBE0F901F9018951F920F920FB6AD
:1015C0000F9211242F933F934F935F936F937F93C9
:1015D0008F939F93AF93BF93EF93FF93E091020399
:1015E000F0910303309709F00995FF91EF91BF91B6
:1015F000AF919F918F917F916F915F914F913F91AB
:101600002F910F900FBE0F901F9018951F920F9261
:101610000FB60F9211242F933F934F935F936F93C5
:101620007F938F939F93AF93BF93EF93FF93E0913B
:10163000FE02F091FF02309709F00995FF91EF91BA
:10164000BF91AF919F918F917F916F915F914F91DA
:101650003F912F910F900FBE0F901F9018951F92E2
:101660000F920FB60F9211242F933F934F935F93D6
:101670006F937F938F939F93AF93BF93EF93FF935A
:10168000E0910603F0910703309709F00995FF9167
:10169000EF91BF91AF919F918F917F916F915F91EA
:1016A0004F913F912F910F900FBE0F901F90189563
:1016B000DC012C916150223039F4673068F4E62F58
:1016C000F0E0E154FE4F06C0693030F4E62FF0E060
:1016D000EA53FE4F208101C020E0DC011A96ED9113
:1016E000FC911B978081887F822B80830895CF9304
:1016F000DF93EC016883613011F120F0623009F072
:101700006CC048C01B821A8286E490E09D838C8363
:101710008EE690E09F838E8384E490E099878887AB
:1017200085E490E09B878A871D861C8687E490E08D
:101730009F878E87198A188A88E490E022C08FE6F6
:1017400090E09F838E8385E890E09B838A8384E882
:1017500090E09D838C8380E890E09987888781E87A
:1017600090E09B878A8789E890E09D878C8788E84E
:1017700090E09F878E878BE890E0998B888B8AE832
:1017800090E09B8B8A8B1D8A1C8A1F8A1E8A82E0AE
:10179000898323C01B821A8282EB90E09D838C8315
:1017A00080E790E09F838E8380EB90E09987888725
:1017B00081EB90E09B878A871D861C8683EB90E0F7
:1017C0009F878E87198A188A84EB90E09B8B8A8B7F
:1017D0001D8A1C8A1F8A1E8A698360E0CE010E94CE
:1017E000580BEA81FB81309709F01082EC81FD8172
:1017F0001082198E188E1B8E1A8E1D8E1C8E1F8EB7
:101800001E8E19A218A2DF91CF91089551E04111C7
:1018100001C050E06530F0F4E62FF0E0E153FE4FF8
:10182000408147FD17C0DC011696ED91FC9117979A
:10183000808121E030E0042E01C0220F0A94EAF7F3
:1018400020952823852F042E01C0880F0A94EAF7DB
:10185000282B20830895623099F028F4662341F004
:101860006130C9F409C0633079F06430A1F410C06C
:10187000FC01518F408F0FC0FC01538F428F0BC072
:10188000FC01558F448F07C0FC01578F468F03C062
:10189000FC0151A340A3452B11F440E003C02223D7
:1018A00019F041E00C94060C0895DC011896ED91B6
:1018B000FC9119973081262F23703C7F232B2083A6
:1018C0001A96ED91FC911B9780816C70660F877E54
:1018D000682B6083089560E088E093E00E94770BB6
:1018E00061E086EE92E00E94770B62E084EC92E089
:1018F0000C94770BA1E21A2EAA1BBB1BFD010DC095
:10190000AA1FBB1FEE1FFF1FA217B307E407F507AF
:1019100020F0A21BB30BE40BF50B661F771F881F8B
:10192000991F1A9469F760957095809590959B0121
:10193000AC01BD01CF010895052E97FB16F400946C
:1019400007D057FD0DD00E947A0C07FC09D07EF419
:1019500090958095709561957F4F8F4F9F4F08951B
:1019600050954095309521953F4F4F4F5F4F0895CB
:10197000EE0FFF1F0590F491E02D09940F931F9334
:10198000CF93DF938230910510F482E090E0E091F4
:101990002C03F0912D0320E030E0C0E0D0E023C024
:1019A0004081518148175907A8F04817590761F439
:1019B00082819381209719F09B838A832EC0909314
:1019C0002D0380932C0329C02115310529F04217DE
:1019D000530710F0A90102C0BE01DF01028113818B
:1019E000EF019A01F8013097D9F62115310509F177
:1019F000281B390B2430310590F412968D919C915F
:101A000013976115710521F0FB019383828304C054
:101A100090932D0380932C03FD01329644C0FD0169
:101A2000E20FF31F81939193225031092D933C9340
:101A30003AC020912A0330912B03232B41F42091AB
:101A400002013091030130932B0320932A0320914C
:101A50000001309101012115310541F42DB73EB748
:101A60004091040150910501241B350BE0912A039C
:101A7000F0912B03E217F307A0F42E1B3F0B28175E
:101A8000390778F0AC014E5F5F4F2417350748F0F7
:101A90004E0F5F1F50932B0340932A038193919322
:101AA00002C0E0E0F0E0CF01DF91CF911F910F91F4
:101AB0000895EF92FF920F931F93CF93DF930097B8
:101AC00009F48FC0DC01129713961C921E92129794
:101AD000E0902C03F0902D03E114F10489F42D9192
:101AE0003C911197280F391F80912A0390912B0365
:101AF0008217930789F5B0932B03A0932A0371C033
:101B0000E70120E030E001C0EA01CA17DB0738F442
:101B10004A815B819E0141155105B1F722C0BC018C
:101B200062507109FB01D383C28300811181AC0132
:101B3000400F511F4C175D0761F448815981400FD8
:101B4000511F4E5F5F4F518340834A815B815383B6
:101B500042832115310529F4B0932D03A0932C0362
:101B600040C0F901B383A283E90169917991C60F5D
:101B7000D71FAC17BD0779F4DC015E914E91460F7B
:101B8000571F4E5F5F4F5183408312968D919C91FA
:101B9000139793838283A0E0B0E002C0D7017C0159
:101BA000F701828193810097C9F7C70102962081CE
:101BB0003181820F931F20912A0330912B03281724
:101BC000390779F4109729F410922D0310922C0301
:101BD00004C013961C921E921297F0922B03E0926F
:101BE0002A03CDB7DEB7E6E00C943D0FA0E0B0E0ED
:101BF000ECEFFDE00C941B0FEC01009729F4CB01F6
:101C00000E94BE0CEC01B8C0DC01A60FB71FFC019E
:101C10003297AE17BF0718F4C0E0D0E0ADC0008126
:101C2000118106171707B0F00530110508F4A4C09C
:101C3000C80104978617970708F49EC0025011093F
:101C4000061B170B0D931D9371836083CD010E94BA
:101C5000590D92C07B01E01AF10A5C01A00EB11E81
:101C6000E0912C03F0912D03812C912C80E090E0E9
:101C70004CC0EA15FB05F1F5408151816A0122E073
:101C8000C20ED11CCE14DF04A8F19A012E193F090F
:101C90007901690132E0C30ED11C2EEFA22EBB24C4
:101CA000BA94AC0EBD1E25E0C216D10478F0428174
:101CB000538113965C934E9312971196FC92EE9279
:101CC000F501718360833A2F2B2F09C00E5F1F4FE0
:101CD000040F151FD5010D931C93328123810097AA
:101CE00021F0FC013283238347C030932C032093DF
:101CF0002D0342C0808191818816990608F44C0119
:101D000052814381CF01E52FF42F309709F0B1CFF5
:101D100080912A0390912B038A159B05F1F4861676
:101D20009706D8F48091000190910101009741F449
:101D30008DB79EB72091040130910501821B930B52
:101D4000A817B90708F068CFB0932B03A0932A0314
:101D5000FE013297718360830FC0CB010E94BE0CDD
:101D60007C01009709F458CFA801BE010E94C20E61
:101D7000CE010E94590DE701CE01CDB7DEB7ECE0F0
:101D80000C94370FFB01DC0102C001900D92415011
:101D90005040D8F70895FB01DC018D910190801926
:101DA0000110D9F3990B0895FB01DC0101900D920C
:101DB0000020E1F70895FB019F01423074F04532A5
:101DC00064F4642F77270E94010F805D8A330CF042
:101DD000895D8193CB010097A1F71082C9010C9412
:101DE000F10EDC01FC01672F71917723E1F7329747
:101DF00004C07C916D9370836291AE17BF07C8F3E6
:101E00000895AA1BBB1B51E107C0AA1FBB1FA61741
:101E1000B70710F0A61BB70B881F991F5A95A9F793
:101E200080959095BC01CD0108952F923F924F92DD
:101E30005F926F927F928F929F92AF92BF92CF925A
:101E4000DF92EF92FF920F931F93CF93DF93CDB763
:101E5000DEB7CA1BDB0B0FB6F894DEBF0FBECDBFDB
:101E600009942A88398848885F846E847D848C84AC
:101E70009B84AA84B984C884DF80EE80FD800C81B5
:101E80001B81AA81B981CE0FD11D0FB6F894DEBF98
:101E90000FBECDBFED01089510E0C2E8D0E004C050
:101EA000FE010E94BA0C2296C438D107C9F7F894F3
:021EB000FFCF62
:101EB20000002E032000050403090807063132330F
:101EC2003435363738392A30234E756D62657220C3
:101ED2006F6620617474656D7074732065786365D4
:101EE20065646564002A00446F6F7220636C6F73CF
:101EF2006564002300417474656D70742064656CC0
:101F02006574656400446F6F72206F70656E6564FE
:101F12002121004E756D626572206F6620617474B6
:101F2200656D7074733A200053797374656D206C1B
:101F32006F636B65640053797374656D20756E6CA5
:101F42006F636B656400313233340000000000843B
:101F5200046A0736043B0461044F04000000005C7D
:101F620004DC04E204000000005704D004D604019B
:101F72000203040506070102000300040506070028
:041F82000102030550
:00000001FF
