:100000000C9440000C9468000C9468000C946800F8
:100010000C9468000C9468000C9468000C946800C0
:100020000C9468000C94C0070C94E9070C94120817
:100030000C94B6080C943B080C9464080C948D083E
:100040000C9445070C946E070C9497070C94680069
:100050000C9485040C9438020C9468000C9468008D
:100060000C9468000C9468000C9468000C94680070
:100070000C945A040C9486020C946800B004F209A3
:1000800011241FBECFEFD0E1DEBFCDBF11E0A0E055
:10009000B1E0E4EDFAE102C005900D92A834B10799
:1000A000D9F712E0A8E4B1E001C01D92A437B1076E
:1000B000E1F710E0C0E8D0E004C02297FE010E9402
:1000C0004C0ACC37D107C9F70E947F010C94680D08
:1000D0000C940000CF92DF92EF92FF920F931F9348
:1000E000CF93DF93CDB7DEB765970FB6F894DEBF39
:1000F0000FBECDBFE12C01E028E040E855E260E012
:1001000070E08EEA91E00E94580360E070E088E4BD
:1001100091E00E940F014AE050E0682F8EEA91E0E2
:100120000E94A00561E070E088E491E00E940F0168
:100130004AE050E0682F8EEA91E00E94A00568E84E
:1001400073E180E090E00E94B9050E945D010E9489
:100150004B01562F472F382F292FC12CD12C760138
:10016000D394652F742F832F922FA70196010E949D
:10017000230A162F072FCA01B901A70196010E9471
:10018000230AF62E4AE0CE0101960E9491064AE02B
:10019000612F702FCE010F960E949106BE01615F04
:1001A0007F4FCE0108960E946D066AE071E0CE0195
:1001B00008960E940007BE016F5F7F4F0E94EA060B
:1001C000BC018EEA91E00E942305CE0108960E94B0
:1001D000E505CE010F960E94E505CE0101960E942D
:1001E000E505412F60E070E088E491E00E94120193
:1001F0004F2D61E070E088E491E00E941201659665
:100200000FB6F894DEBF0FBECDBFDF91CF911F9127
:100210000F91FF90EF90DF90CF9008950895CB015C
:100220000C94EF0CCB01642F0C94F70C80914A01D5
:1002300090914B01A0914C01B0914D013091490139
:10024000232F2D5F2D3720F40196A11DB11D05C070
:10025000232F2A570296A11DB11D20934901809397
:100260004A0190934B01A0934C01B0934D018091B2
:100270004E0190914F01A0915001B0915101019612
:10028000A11DB11D80934E0190934F01A093500189
:10029000B093510108950F931F938FB7F894009175
:1002A0004A0110914B0120914C0130914D018FBFBB
:1002B000B801C9011F910F9108958F929F92AF923B
:1002C000BF92CF92DF92EF92FF926B017C010E946E
:1002D0004B014B015C010E944B01681979098A09A5
:1002E0009B096C157D058E059F05A8F3FF90EF9087
:1002F000DF90CF90BF90AF909F908F9008950E9415
:100300001D070E946A000E940E01FDCFFC0120899A
:100310003189C9010895DC0150962D913C91519786
:10032000232B49F05496ED91FC915597E80FF91F56
:10033000268930E002C02FEF3FEFC9010895FC018C
:10034000118A108A158A148A138A128A0895FC0168
:1003500024813581C9010895FC0124813581C901B9
:100360000895FC0180899189892BD1F03FB7F894D9
:10037000808991890197918B808B84899589DF0190
:10038000A80FB91F56962C910196803291051CF446
:10039000958B848B02C0158A148A3FBF30E002C05F
:1003A0002FEF3FEFC9010895EF92FF921F93CF9374
:1003B000DF931F92CDB7DEB77C01D701DA968D911E
:1003C0009C91DB974097C8F71FB7F894D696ED91AC
:1003D000FC91D7970190F081E02DC701C696698303
:1003E000099569814097C8F4F70182AD93AD0196F4
:1003F00093AF82AF84AD95ADE80FF91FE05CFF4F7E
:1004000060830196D701DD969C938E93DC9740978D
:1004100024F0DD961C921E92DC97F701EA5AFF4FFA
:100420000190F081E02D8081806280831FBF81E098
:1004300090E00F90DF91CF911F91FF90EF90089582
:10044000665F7F4F680F791FCB010895665F7F4F0E
:10045000680F791FCB010895665F7F4F680F791F82
:10046000CB010895665F7F4F680F791FCB01089518
:100470001F920F920FB60F9211242F938F939F9379
:10048000AF93BF93EF93FF938091E8019091E901BF
:10049000892B21F1E0910802F09109028091E80195
:1004A0009091E90101979093E9018093E80180918F
:1004B000EC019091ED01DC01AC51BE4F1A962C91EC
:1004C0000196803191052CF49093ED018093EC011D
:1004D00004C01092ED011092EC0120838091E8019C
:1004E0009091E901892B31F4E0910402F091050229
:1004F00088E98083FF91EF91BF91AF919F918F9198
:100500002F910F900FBE0F901F9018951F920F9272
:100510000FB60F9211242F938F939F93AF93BF9396
:10052000EF93FF9380918C0190918D01892B21F1A4
:10053000E091AC01F091AD0180918C0190918D0121
:10054000019790938D0180938C01809190019091FF
:100550009101DC01A857BE4F1A962C91019680316B
:1005600091052CF4909391018093900104C0109216
:10057000910110929001208380918C0190918D01C6
:10058000892B31F4E091A801F091A90188E98083D9
:10059000FF91EF91BF91AF919F918F912F910F900C
:1005A0000FBE0F901F901895FC01262F1382128208
:1005B00048EE53E060E070E04483558366837783C0
:1005C00082E191E09183808382E291E09587848744
:1005D00080E290E097878687118A108A158A148AAC
:1005E000138A128A8CE291E097AB86AB80E190E0AF
:1005F00091AF80AF13AE12AE17AE16AE15AE14AEFD
:10060000222321F0213009F052C028C0DF01A05B75
:10061000BF4F85EC90E08D939C93DF01AE5ABF4FA6
:1006200084EC90E08D939C93DF01AC5ABF4F80EC3B
:1006300090E08D939C93DF01AA5ABF4F81EC90E02C
:100640008D939C93DF01A85ABF4F82EC90E08D936D
:100650009C93E65AFF4F86EC90E027C0DF01A05B39
:10066000BF4F8DEC90E08D939C93DF01AE5ABF4F4E
:100670008CEC90E08D939C93DF01AC5ABF4F88ECDB
:1006800090E08D939C93DF01AA5ABF4F89EC90E0D4
:100690008D939C93DF01A85ABF4F8AEC90E08D9315
:1006A0009C93E65AFF4F8EEC90E0918380830895EF
:1006B0003F924F925F926F927F928F929F92AF92F2
:1006C000BF92CF92DF92EF92FF920F931F93CF933F
:1006D000DF93EC014A015B01122F3E2C60E072E1D6
:1006E0008AE790E0A50194010E94010A69017A015C
:1006F00084E0C80ED11CE11CF11C83E0F694E79461
:10070000D794C7948A95D1F760E074E284EF90E0C3
:10071000A50194010E94010A29013A0194E0490EC1
:10072000511C611C711C93E0769467945794479414
:100730009A95D1F7A30192014427552760E874E800
:100740008EE190E00E94230A5901A818B908B7FE6B
:1007500003C0B194A194B108A7019601442755277D
:1007600060E472E48FE090E00E94230A28193909BE
:1007700037FF03C0319521953109FE01EC5AFF4F37
:100780000190F081E02DA216B3063CF482E0808354
:10079000620181E0C81AD10804C0108291E0C91A30
:1007A000D1081630C1F018F4153099F405C017308F
:1007B00029F0193071F404C080E00EC084E00CC050
:1007C000FE01EA5AFF4F0190F081E02D80818460A4
:1007D000808386E001C082E0023009F4886091E005
:1007E000391621F092E0391204C002C0806301C0C2
:1007F0008062FE01E85AFF4F0190F081E02D808376
:10080000FE01E05BFF4F0190F081E02DD082FE0100
:10081000EE5AFF4F0190F081E02DC082CA5ADF4F9F
:10082000E881F98188E98083DF91CF911F910F9151
:10083000FF90EF90DF90CF90BF90AF909F908F9000
:100840007F906F905F904F903F9008950F931F930C
:10085000CF93DF931F92CDB7DEB78C01DC01ED9112
:10086000FC910190F081E02D698309956981809761
:10087000D0F4F801848195810196958384838681E3
:100880009781E80FF91F628701968032910534F451
:10089000D80117969C938E93169703C0F801178280
:1008A000168281E001C080E00F90DF91CF911F910F
:1008B0000F9108951F920F920FB60F9211242F934C
:1008C0003F934F935F936F937F938F939F93AF93D8
:1008D000BF93EF93FF93E091AC01F091AD01608184
:1008E0008EE591E00E942604FF91EF91BF91AF91B8
:1008F0009F918F917F916F915F914F913F912F9138
:100900000F900FBE0F901F9018951F920F920FB669
:100910000F9211242F933F934F935F936F937F9385
:100920008F939F93AF93BF93EF93FF93E091080250
:10093000F091090260818AEB91E00E942604FF9108
:10094000EF91BF91AF919F918F917F916F915F9147
:100950004F913F912F910F900FBE0F901F901895C0
:1009600060E08EEA91E00E94D40261E082E591E0CD
:100970000C94D402CF92DF92EF92FF920F931F93C9
:10098000CF93DF936C01EB017A01E60EF71E00E0D6
:1009900010E00BC06991D601ED91FC910190F081BE
:1009A000E02DC6010995080F191FCE15DF0591F737
:1009B000C801DF91CF911F910F91FF90EF90DF90D1
:1009C000CF9008956115710581F0DB010D90002035
:1009D000E9F7AD0141505109461B570BDC01ED9180
:1009E000FC910280F381E02D099480E090E008956D
:1009F000DC01ED91FC910190F081E02D0994DC0186
:100A0000ED91FC91DB0114964D915C9115976D91E0
:100A10007C910280F381E02D09940F931F93CF9373
:100A2000DF93EC016DE00E94F8048C016AE0CE01D6
:100A30000E94F8049C01200F311FC901DF91CF9162
:100A40001F910F9108950F931F93CF93DF93EC01A4
:100A50000E94FF048C01CE010E940D059C01200F15
:100A6000311FC901DF91CF911F910F9108954F92CE
:100A70005F926F927F929F92AF92BF92CF92DF92DE
:100A8000EF92FF920F931F93CF93DF93CDB7DEB713
:100A9000A1970FB6F894DEBF0FBECDBF5C016A010F
:100AA0007B01922E19A281E0821710F08AE0982E25
:100AB0008E010F5D1F4F492C512C612C712CC701E9
:100AC000B601A30192010E94010A8C2D929E801909
:100AD0001124015011098A3014F4805D01C0895C31
:100AE000F801808369017A01C114D104E104F104A1
:100AF00031F7B801C5010E94E204A1960FB6F8943F
:100B0000DEBF0FBECDBFDF91CF911F910F91FF9040
:100B1000EF90DF90CF90BF90AF909F907F906F90BD
:100B20005F904F9008952115310541F4DC01ED915E
:100B3000FC910190F081E02D642F09940C9437050D
:100B40000F931F93CF93DF93EC019A01462F50E050
:100B500060E070E00E9493058C01CE010E940D05BB
:100B60009801280F391FC901DF91CF911F910F9173
:100B700008950F931F93CF93DF9300D000D0CDB78C
:100B8000DEB79B01AC01611571058105910579F016
:100B900069833A834B835C830E94E40B29813A8109
:100BA0004B815C810E94230A8B019C0103C000E001
:100BB00010E09801B801C9010F900F900F900F90AD
:100BC000DF91CF911F910F910895FC018081918158
:100BD0000C94F70ACF93DF93EC01888199810097F9
:100BE00011F00E94F70A198218821D821C821B8252
:100BF0001A82DF91CF9108950F931F93CF93DF93C4
:100C0000EC018B016F5F7F4F888199810E94F20B0D
:100C1000009731F0998388831B830A8381E001C0A8
:100C200080E0DF91CF911F910F910895CF93DF93D3
:100C3000EC0188819981892B31F08A819B8186170B
:100C4000970708F00CC0CE010E94FC05882349F0EC
:100C50008C819D81892B19F4E881F981108281E0D2
:100C600001C080E0DF91CF910895EF92FF920F9342
:100C70001F93CF93DF93EC017B018A01BA010E949D
:100C80001606811104C0CE010E94EA0507C01D832B
:100C90000C83B701888199810E94C70CCE01DF9136
:100CA000CF911F910F91FF90EF900895CF93DF9315
:100CB000EC01FB018617970761F060817181611576
:100CC000710529F0448155810E94350602C00E94B9
:100CD000EA05CE01DF91CF910895FC0111821082C7
:100CE000138212821582148216820C945606CF93B8
:100CF000DF93D82FC92F6115710561F0DB010D90CD
:100D00000020E9F7AD0141505109461B570B0E94E5
:100D1000350602C00E94EA058D2F9C2FDF91CF91EE
:100D200008950F931F93CF93DF93CDB7DEB76297EC
:100D30000FB6F894DEBF0FBECDBF8C01CB01F8011A
:100D4000118210821382128215821482168250E060
:100D5000BE016F5F7F4F0E94CE0CBE016F5F7F4F61
:100D6000C8010E94770662960FB6F894DEBF0FBEE8
:100D7000CDBFDF91CF911F910F910895EF92FF9218
:100D80000F931F93CF93DF93EC017B010C811D81A7
:100D90006115710511F480E016C04115510591F0FF
:100DA000040F151FB8010E9416068823A1F328819D
:100DB00039818C819D81B701820F931F0E94C70CDE
:100DC0001D830C8381E0DF91CF911F910F91FF90E4
:100DD000EF900895CF93DF93D82FC92FFB01448163
:100DE0005581608171810E94BE06811104C08D2FE2
:100DF0009C2F0E94EA058D2F9C2FDF91CF910895A3
:100E0000CF93DF93D82FC92F6115710569F0DB01EE
:100E10000D900020E9F7AD0141505109461B570BD9
:100E20000E94BE06811104C08D2F9C2F0E94EA05EE
:100E30008D2F9C2FDF91CF91089563E08EE492E097
:100E40000E94DC0921E046E151E060E08EE492E09E
:100E50000E94B20964E08EE492E00E94DF0861E043
:100E60008CE292E00E94DC0964E08CE292E00E9455
:100E7000DF0861E08AE092E00E94DC0964E08AE039
:100E800092E00E94DF08789408951F920F920FB6A7
:100E90000F9211242F933F934F935F936F937F9300
:100EA0008F939F93AF93BF93EF93FF93E09168026B
:100EB000F0916902309709F00995FF91EF91BF9188
:100EC000AF919F918F917F916F915F914F913F91E2
:100ED0002F910F900FBE0F901F9018951F920F9299
:100EE0000FB60F9211242F933F934F935F936F93FD
:100EF0007F938F939F93AF93BF93EF93FF93E09173
:100F00006A02F0916B02309709F00995FF91EF9119
:100F1000BF91AF919F918F917F916F915F914F9111
:100F20003F912F910F900FBE0F901F9018951F9219
:100F30000F920FB60F9211242F933F934F935F930D
:100F40006F937F938F939F93AF93BF93EF93FF9391
:100F5000E0916602F0916702309709F00995FF91E0
:100F6000EF91BF91AF919F918F917F916F915F9121
:100F70004F913F912F910F900FBE0F901F9018959A
:100F80001F920F920FB60F9211242F933F934F93FE
:100F90005F936F937F938F939F93AF93BF93EF93E1
:100FA000FF93E0912402F0912502309709F0099512
:100FB000FF91EF91BF91AF919F918F917F916F9131
:100FC0005F914F913F912F910F900FBE0F901F9007
:100FD00018951F920F920FB60F9211242F933F93E3
:100FE0004F935F936F937F938F939F93AF93BF9331
:100FF000EF93FF93E0912602F0912702309709F0DA
:101000000995FF91EF91BF91AF919F918F917F9142
:101010006F915F914F913F912F910F900FBE0F9065
:101020001F9018951F920F920FB60F9211242F93B5
:101030003F934F935F936F937F938F939F93AF9360
:10104000BF93EF93FF93E0912202F0912302309738
:1010500009F00995FF91EF91BF91AF919F918F9109
:101060007F916F915F914F913F912F910F900FBEA4
:101070000F901F9018951F920F920FB60F92112488
:101080002F933F934F935F936F937F938F939F9390
:10109000AF93BF93EF93FF93E0914602F091470225
:1010A000309709F00995FF91EF91BF91AF919F9112
:1010B0008F917F916F915F914F913F912F910F9001
:1010C0000FBE0F901F9018951F920F920FB60F92A0
:1010D00011242F933F934F935F936F937F938F933D
:1010E0009F93AF93BF93EF93FF93E0914802F091EA
:1010F0004902309709F00995FF91EF91BF91AF91A7
:101100009F918F917F916F915F914F913F912F911F
:101110000F900FBE0F901F9018951F920F920FB651
:101120000F9211242F933F934F935F936F937F936D
:101130008F939F93AF93BF93EF93FF93E0914402FC
:10114000F0914502309709F00995FF91EF91BF9119
:10115000AF919F918F917F916F915F914F913F914F
:101160002F910F900FBE0F901F9018951F920F9206
:101170000FB60F9211242F933F934F935F936F936A
:101180007F938F939F93AF93BF93EF93FF93E091E0
:101190004C02F0914D02309709F00995FF91EF91C3
:1011A000BF91AF919F918F917F916F915F914F917F
:1011B0003F912F910F900FBE0F901F901895DC015B
:1011C0002C916150223039F4673068F4E62FF0E05A
:1011D000EE5CFE4F06C0693030F4E62FF0E0E75CCD
:1011E000FE4F208101C020E0DC011A96ED91FC91B8
:1011F0001B978081887F822B80830895CF93DF9314
:10120000EC016883613011F120F0623009F06CC0AC
:1012100048C01B821A8286E490E09D838C838EE610
:1012200090E09F838E8384E490E09987888785E4AB
:1012300090E09B878A871D861C8687E490E09F87C5
:101240008E87198A188A88E490E022C08FE690E0A1
:101250009F838E8385E890E09B838A8384E890E077
:101260009D838C8380E890E09987888781E890E06F
:101270009B878A8789E890E09D878C8788E890E043
:101280009F878E878BE890E0998B888B8AE890E027
:101290009B8B8A8B1D8A1C8A1F8A1E8A82E0898307
:1012A00023C01B821A8282EB90E09D838C8380E7AF
:1012B00090E09F838E8380EB90E09987888781EB15
:1012C00090E09B878A871D861C8683EB90E09F8732
:1012D0008E87198A188A84EB90E09B8B8A8B1D8AF3
:1012E0001C8A1F8A1E8A698360E0CE010E94DF0883
:1012F000EA81FB81309709F01082EC81FD81108238
:10130000198E188E1B8E1A8E1D8E1C8E1F8E1E8E91
:1013100019A218A2DF91CF91089551E0411101C0A7
:1013200050E06530F0F4E62FF0E0EE5BFE4F4081D8
:1013300047FD17C0DC011696ED91FC91179780814F
:1013400021E030E0042E01C0220F0A94EAF7209534
:101350002823852F042E01C0880F0A94EAF7282B32
:1013600020830895623099F028F4662341F06130BB
:10137000C9F409C0633079F06430A1F410C0FC01F5
:10138000518F408F0FC0FC01538F428F0BC0FC0167
:10139000558F448F07C0FC01578F468F03C0FC0157
:1013A00051A340A3452B11F440E003C0222319F0C0
:1013B00041E00C948D090895DC011896ED91FC91A3
:1013C00019973081262F23703C7F232B20831A9678
:1013D000ED91FC911B9780816C70660F877E682B66
:1013E0006083089560E08EE492E00E94FE0861E070
:1013F0008CE292E00E94FE0862E08AE092E00C94A7
:10140000FE08A1E21A2EAA1BBB1BFD010DC0AA1FDC
:10141000BB1FEE1FFF1FA217B307E407F50720F05D
:10142000A21BB30BE40BF50B661F771F881F991FD8
:101430001A9469F760957095809590959B01AC0121
:10144000BD01CF010895052E97FB16F4009407D037
:1014500057FD0DD00E94010A07FC09D07EF490953B
:101460008095709561957F4F8F4F9F4F0895509550
:101470004095309521953F4F4F4F5F4F08950E9403
:10148000500AA59F900DB49F900DA49F800D911DB3
:1014900011240895EE0FFF1F0590F491E02D09949B
:1014A000A29FB001B39FC001A39F01D0B29F700D56
:1014B000811D1124911D08950F931F93CF93DF93E6
:1014C0008230910510F482E090E0E0917202F09198
:1014D000730220E030E0C0E0D0E023C040815181C1
:1014E00048175907A8F04817590761F4828193817A
:1014F000209719F09B838A832EC090937302809368
:10150000720229C02115310529F04217530710F046
:10151000A90102C0BE01DF0102811381EF019A011E
:10152000F8013097D9F62115310509F1281B390B3F
:101530002430310590F412968D919C91139761158A
:10154000710521F0FB019383828304C090937302A1
:1015500080937202FD01329644C0FD01E20FF31F39
:1015600081939193225031092D933C933AC020915D
:10157000700230917102232B41F4209102013091CD
:101580000301309371022093700220910001309189
:1015900001012115310541F42DB73EB740910401F9
:1015A00050910501241B350BE0917002F0917102FE
:1015B000E217F307A0F42E1B3F0B2817390778F02A
:1015C000AC014E5F5F4F2417350748F04E0F5F1F89
:1015D00050937102409370028193919302C0E0E0B6
:1015E000F0E0CF01DF91CF911F910F910895EF921D
:1015F000FF920F931F93CF93DF93009709F48FC04F
:10160000DC01129713961C921E921297E0907202C0
:10161000F0907302E114F10489F42D913C9111973B
:10162000280F391F809170029091710282179307E1
:1016300089F5B0937102A093700271C0E70120E0B8
:1016400030E001C0EA01CA17DB0738F44A815B8148
:101650009E0141155105B1F722C0BC0162507109CC
:10166000FB01D383C28300811181AC01400F511F64
:101670004C175D0761F448815981400F511F4E5F3F
:101680005F4F518340834A815B815383428321159D
:10169000310529F4B0937302A093720240C0F9019E
:1016A000B383A283E90169917991C60FD71FAC1763
:1016B000BD0779F4DC015E914E91460F571F4E5FD6
:1016C0005F4F5183408312968D919C911397938322
:1016D0008283A0E0B0E002C0D7017C01F7018281E3
:1016E00093810097C9F7C701029620813181820F4B
:1016F000931F20917002309171022817390779F4F5
:10170000109729F4109273021092720204C013967B
:101710001C921E921297F0927102E0927002CDB765
:10172000DEB7E6E00C94590D8F929F92AF92BF9274
:10173000CF92DF92EF92FF92CF93DF93EC0168811B
:1017400079818A819B81611571058105910521F45B
:1017500064E279ED8BE597E02DE133EF41E050E075
:101760000E94230A49015A019B01AC01A7EAB1E496
:101770000E943F0A6B017C01ACEEB4EFA50194011D
:101780000E94180DC60ED71EE81EF91EF7FE06C0F1
:1017900081E0C81AD108E10880E8F80AC882D98235
:1017A000EA82FB82E894F7F8B601C701DF91CF9196
:1017B000FF90EF90DF90CF90BF90AF909F908F9071
:1017C00008950E94940B089586E091E00E94940B86
:1017D0000895609306017093070180930801909328
:1017E00009010895A0E0B0E0E8EFFBE00C94370DAC
:1017F000EC01009729F4CB010E945C0AEC01B8C00F
:10180000DC01A60FB71FFC013297AE17BF0718F413
:10181000C0E0D0E0ADC00081118106171707B0F01D
:101820000530110508F4A4C0C8010497861797076E
:1018300008F49EC002501109061B170B0D931D934F
:1018400071836083CD010E94F70A92C07B01E01A88
:10185000F10A5C01A00EB11EE0917202F0917302D8
:10186000812C912C80E090E04CC0EA15FB05F1F54D
:10187000408151816A0122E0C20ED11CCE14DF04E6
:10188000A8F19A012E193F097901690132E0C30ECE
:10189000D11C2EEFA22EBB24BA94AC0EBD1E25E0A7
:1018A000C216D10478F04281538113965C934E9313
:1018B00012971196FC92EE92F501718360833A2F94
:1018C0002B2F09C00E5F1F4F040F151FD5010D935D
:1018D0001C9332812381009721F0FC013283238302
:1018E00047C0309372022093730242C0808191817D
:1018F0008816990608F44C0152814381CF01E52FE7
:10190000F42F309709F0B1CF80917002909171025D
:101910008A159B05F1F486169706D8F4809100018C
:1019200090910101009741F48DB79EB72091040179
:1019300030910501821B930BA817B90708F068CFF7
:10194000B0937102A0937002FE013297718360839D
:101950000FC0CB010E945C0A7C01009709F458CFAC
:10196000A801BE010E94BE0CCE010E94F70AE70149
:10197000CE01CDB7DEB7ECE00C94530DFB01DC01DA
:1019800002C001900D9241505040D8F70895FB01DC
:10199000DC0101900D920020E1F70895FB019F0109
:1019A000E8944230C4F04532B4F44A3029F497FB4D
:1019B0001EF4909581959F4F642F77270E941D0DEF
:1019C000805D8A330CF0895D8193CB010097A1F78C
:1019D00016F45DE251931082C9010C94050DF9993A
:1019E000FECF92BD81BDF89A992780B50895262F24
:1019F000F999FECF1FBA92BD81BD20BD0FB6F894F4
:101A0000FA9AF99A0FBE01960895DC01FC01672F3E
:101A100071917723E1F7329704C07C916D937083C5
:101A20006291AE17BF07C8F30895B7FF0C943F0A41
:101A30000E943F0A821B930B0895AA1BBB1B51E116
:101A400007C0AA1FBB1FA617B70710F0A61BB70B2E
:101A5000881F991F5A95A9F780959095BC01CD01D3
:101A600008952F923F924F925F926F927F928F9242
:101A70009F92AF92BF92CF92DF92EF92FF920F931D
:101A80001F93CF93DF93CDB7DEB7CA1BDB0B0FB627
:101A9000F894DEBF0FBECDBF09942A8839884888E4
:101AA0005F846E847D848C849B84AA84B984C8847A
:101AB000DF80EE80FD800C811B81AA81B981CE0F71
:101AC000D11D0FB6F894DEBF0FBECDBFED01089556
:041AD000F894FFCFB8
:101AD4000000740220000100000020262000000005
:101AE4000000D401BA0486018B01B1019F010000FA
:101AF4000000AC012C02320200000000A701200209
:101B0400260201020304050607010200030004057E
:081B14000607000102030500B1
:00000001FF
